{
  "contractName": "ElectionFactory",
  "abi": [
    {
      "anonymous": false,
      "inputs": [
        {
          "indexed": false,
          "name": "data",
          "type": "string"
        }
      ],
      "name": "print",
      "type": "event"
    },
    {
      "constant": false,
      "inputs": [
        {
          "name": "_creator",
          "type": "address"
        },
        {
          "name": "allCandidates",
          "type": "string"
        },
        {
          "name": "_question",
          "type": "string"
        }
      ],
      "name": "newElection",
      "outputs": [
        {
          "name": "",
          "type": "address"
        }
      ],
      "payable": false,
      "stateMutability": "nonpayable",
      "type": "function"
    },
    {
      "constant": false,
      "inputs": [
        {
          "name": "elec",
          "type": "address"
        },
        {
          "name": "candidate",
          "type": "string"
        }
      ],
      "name": "plusCandidate",
      "outputs": [],
      "payable": false,
      "stateMutability": "nonpayable",
      "type": "function"
    },
    {
      "constant": false,
      "inputs": [],
      "name": "getElection",
      "outputs": [
        {
          "name": "",
          "type": "address"
        }
      ],
      "payable": false,
      "stateMutability": "nonpayable",
      "type": "function"
    }
  ],
  "bytecode": "0x608060405234801561001057600080fd5b50611553806100206000396000f300608060405260043610610057576000357c0100000000000000000000000000000000000000000000000000000000900463ffffffff168063033a0b011461005c578063da6938731461016b578063eceed339146101f4575b600080fd5b34801561006857600080fd5b50610129600480360381019080803573ffffffffffffffffffffffffffffffffffffffff169060200190929190803590602001908201803590602001908080601f0160208091040260200160405190810160405280939291908181526020018383808284378201915050505050509192919290803590602001908201803590602001908080601f016020809104026020016040519081016040528093929190818152602001838380828437820191505050505050919291929050505061024b565b604051808273ffffffffffffffffffffffffffffffffffffffff1673ffffffffffffffffffffffffffffffffffffffff16815260200191505060405180910390f35b34801561017757600080fd5b506101f2600480360381019080803573ffffffffffffffffffffffffffffffffffffffff169060200190929190803590602001908201803590602001908080601f01602080910402602001604051908101604052809392919081815260200183838082843782019150505050505091929192905050506104c7565b005b34801561020057600080fd5b506102096106f5565b604051808273ffffffffffffffffffffffffffffffffffffffff1673ffffffffffffffffffffffffffffffffffffffff16815260200191505060405180910390f35b6000807f11114af1fb8a9f9d70bc529b2e9367cd45202b315e53e6559b08f2e13bf9e37c6040518080602001828103825260168152602001807f41424f555420544f204d414b4520454c454354494f4e0000000000000000000081525060200191505060405180910390a18484846102c161079e565b808473ffffffffffffffffffffffffffffffffffffffff1673ffffffffffffffffffffffffffffffffffffffff1681526020018060200180602001838103835285818151815260200191508051906020019080838360005b83811015610334578082015181840152602081019050610319565b50505050905090810190601f1680156103615780820380516001836020036101000a031916815260200191505b50838103825284818151815260200191508051906020019080838360005b8381101561039a57808201518184015260208101905061037f565b50505050905090810190601f1680156103c75780820380516001836020036101000a031916815260200191505b5095505050505050604051809103906000f0801580156103eb573d6000803e3d6000fd5b5090507f11114af1fb8a9f9d70bc529b2e9367cd45202b315e53e6559b08f2e13bf9e37c6040518080602001828103825260108152602001807f4d414445204e4557454c454354494f4e0000000000000000000000000000000081525060200191505060405180910390a160008190806001815401808255809150509060018203906000526020600020016000909192909190916101000a81548173ffffffffffffffffffffffffffffffffffffffff021916908373ffffffffffffffffffffffffffffffffffffffff16021790555050809150509392505050565b60007f11114af1fb8a9f9d70bc529b2e9367cd45202b315e53e6559b08f2e13bf9e37c6040518080602001828103825260168152602001807f41424f555420544f204d414b4520454c454354494f4e0000000000000000000081525060200191505060405180910390a18290507f11114af1fb8a9f9d70bc529b2e9367cd45202b315e53e6559b08f2e13bf9e37c60405180806020018281038252600d8152602001807f4d41444520454c454354494f4e0000000000000000000000000000000000000081525060200191505060405180910390a17f11114af1fb8a9f9d70bc529b2e9367cd45202b315e53e6559b08f2e13bf9e37c6040518080602001828103825260128152602001807f41424f555420544f204d414b4520504f4c4c000000000000000000000000000081525060200191505060405180910390a18073ffffffffffffffffffffffffffffffffffffffff1663462e91ec836040518263ffffffff167c01000000000000000000000000000000000000000000000000000000000281526004018080602001828103825283818151815260200191508051906020019080838360005b8381101561068c578082015181840152602081019050610671565b50505050905090810190601f1680156106b95780820380516001836020036101000a031916815260200191505b5092505050600060405180830381600087803b1580156106d857600080fd5b505af11580156106ec573d6000803e3d6000fd5b50505050505050565b60007f11114af1fb8a9f9d70bc529b2e9367cd45202b315e53e6559b08f2e13bf9e37c60405180806020018281038252601a8152602001807f41424f555420544f20524554524945564520454c454354494f4e00000000000081525060200191505060405180910390a160008081548110151561076e57fe5b9060005260206000200160009054906101000a900473ffffffffffffffffffffffffffffffffffffffff16905090565b604051610d79806107af83390190560060806040523480156200001157600080fd5b5060405162000d7938038062000d7983398101806040528101908080519060200190929190805182019291906020018051820192919050505082600360006101000a81548173ffffffffffffffffffffffffffffffffffffffff021916908373ffffffffffffffffffffffffffffffffffffffff1602179055508060049080519060200190620000a392919062000146565b50620000be82620000c7640100000000026401000000009004565b5050506200027c565b6002600081548092919060010191905055506060604051908101604052806002548152602001828152602001600081525060016000600254815260200190815260200160002060008201518160000155602082015181600101908051906020019062000135929190620001cd565b506040820151816002015590505050565b828054600181600116156101000203166002900490600052602060002090601f016020900481019282601f106200018957805160ff1916838001178555620001ba565b82800160010185558215620001ba579182015b82811115620001b95782518255916020019190600101906200019c565b5b509050620001c9919062000254565b5090565b828054600181600116156101000203166002900490600052602060002090601f016020900481019282601f106200021057805160ff191683800117855562000241565b8280016001018555821562000241579182015b828111156200024057825182559160200191906001019062000223565b5b50905062000250919062000254565b5090565b6200027991905b80821115620002755760008160009055506001016200025b565b5090565b90565b610aed806200028c6000396000f300608060405260043610610099576000357c0100000000000000000000000000000000000000000000000000000000900463ffffffff1680630121b93f1461009e57806302d05d3f146100cb5780632d35a8a2146101225780633477ee2e1461014d5780633fad9ae014610201578063462e91ec146102915780639201de55146102fa578063a3ec138d146103a4578063f129dbd9146103ff575b600080fd5b3480156100aa57600080fd5b506100c960048036038101908080359060200190929190505050610468565b005b3480156100d757600080fd5b506100e061055d565b604051808273ffffffffffffffffffffffffffffffffffffffff1673ffffffffffffffffffffffffffffffffffffffff16815260200191505060405180910390f35b34801561012e57600080fd5b50610137610583565b6040518082815260200191505060405180910390f35b34801561015957600080fd5b5061017860048036038101908080359060200190929190505050610589565b6040518084815260200180602001838152602001828103825284818151815260200191508051906020019080838360005b838110156101c45780820151818401526020810190506101a9565b50505050905090810190601f1680156101f15780820380516001836020036101000a031916815260200191505b5094505050505060405180910390f35b34801561020d57600080fd5b5061021661064b565b6040518080602001828103825283818151815260200191508051906020019080838360005b8381101561025657808201518184015260208101905061023b565b50505050905090810190601f1680156102835780820380516001836020036101000a031916815260200191505b509250505060405180910390f35b34801561029d57600080fd5b506102f8600480360381019080803590602001908201803590602001908080601f01602080910402602001604051908101604052809392919081815260200183838082843782019150505050505091929192905050506106e9565b005b34801561030657600080fd5b506103296004803603810190808035600019169060200190929190505050610766565b6040518080602001828103825283818151815260200191508051906020019080838360005b8381101561036957808201518184015260208101905061034e565b50505050905090810190601f1680156103965780820380516001836020036101000a031916815260200191505b509250505060405180910390f35b3480156103b057600080fd5b506103e5600480360381019080803573ffffffffffffffffffffffffffffffffffffffff169060200190929190505050610962565b604051808215151515815260200191505060405180910390f35b34801561040b57600080fd5b50610466600480360381019080803590602001908201803590602001908080601f0160208091040260200160405190810160405280939291908181526020018383808284378201915050505050509192919290505050610982565b005b6000803373ffffffffffffffffffffffffffffffffffffffff1673ffffffffffffffffffffffffffffffffffffffff16815260200190815260200160002060009054906101000a900460ff161515156104c057600080fd5b6000811180156104d257506002548111155b15156104dd57600080fd5b60016000803373ffffffffffffffffffffffffffffffffffffffff1673ffffffffffffffffffffffffffffffffffffffff16815260200190815260200160002060006101000a81548160ff021916908315150217905550600160008281526020019081526020016000206002016000815480929190600101919050555050565b600360009054906101000a900473ffffffffffffffffffffffffffffffffffffffff1681565b60025481565b6001602052806000526040600020600091509050806000015490806001018054600181600116156101000203166002900480601f01602080910402602001604051908101604052809291908181526020018280546001816001161561010002031660029004801561063b5780601f106106105761010080835404028352916020019161063b565b820191906000526020600020905b81548152906001019060200180831161061e57829003601f168201915b5050505050908060020154905083565b60048054600181600116156101000203166002900480601f0160208091040260200160405190810160405280929190818152602001828054600181600116156101000203166002900480156106e15780601f106106b6576101008083540402835291602001916106e1565b820191906000526020600020905b8154815290600101906020018083116106c457829003601f168201915b505050505081565b6002600081548092919060010191905055506060604051908101604052806002548152602001828152602001600081525060016000600254815260200190815260200160002060008201518160000155602082015181600101908051906020019061075592919061099c565b506040820151816002015590505050565b6060806000806000606060206040519080825280601f01601f1916602001820160405280156107a45781602001602082028038833980820191505090505b50945060009350600092505b602083101561086e578260080260020a876001900402600102915060007f010000000000000000000000000000000000000000000000000000000000000002827effffffffffffffffffffffffffffffffffffffffffffffffffffffffffffff19161415156108615781858581518110151561082857fe5b9060200101907effffffffffffffffffffffffffffffffffffffffffffffffffffffffffffff1916908160001a90535083806001019450505b82806001019350506107b0565b836040519080825280601f01601f1916602001820160405280156108a15781602001602082028038833980820191505090505b509050600092505b838310156109555784838151811015156108bf57fe5b9060200101517f010000000000000000000000000000000000000000000000000000000000000090047f010000000000000000000000000000000000000000000000000000000000000002818481518110151561091857fe5b9060200101907effffffffffffffffffffffffffffffffffffffffffffffffffffffffffffff1916908160001a90535082806001019350506108a9565b8095505050505050919050565b60006020528060005260406000206000915054906101000a900460ff1681565b8060049080519060200190610998929190610a1c565b5050565b828054600181600116156101000203166002900490600052602060002090601f016020900481019282601f106109dd57805160ff1916838001178555610a0b565b82800160010185558215610a0b579182015b82811115610a0a5782518255916020019190600101906109ef565b5b509050610a189190610a9c565b5090565b828054600181600116156101000203166002900490600052602060002090601f016020900481019282601f10610a5d57805160ff1916838001178555610a8b565b82800160010185558215610a8b579182015b82811115610a8a578251825591602001919060010190610a6f565b5b509050610a989190610a9c565b5090565b610abe91905b80821115610aba576000816000905550600101610aa2565b5090565b905600a165627a7a72305820f95c1314d65d8b93e8bea4b3805344380fc23d93fb0e310a052e48fca9781d3f0029a165627a7a72305820726f32a7c87f88c7aa38ddc206fb1b23f1618dfd81e2c6f6f0c0207d4ec8b9e10029",
  "source": "pragma solidity ^0.4.2;\n\nimport './Election.sol';\n\ncontract ElectionFactory {\n\n    address[] allElections;\n\n    event print(string data);\n\n    function newElection (address _creator, string allCandidates, string _question) public returns (address){\n        print(\"ABOUT TO MAKE ELECTION\");\n        address e = (new Election(_creator, allCandidates, _question));\n        print(\"MADE NEWELECTION\");\n        allElections.push(e);\n        return e;\n    }\n\n    function plusCandidate(address elec, string candidate) public {\n        print(\"ABOUT TO MAKE ELECTION\");\n        Election poll = Election(elec);\n        print(\"MADE ELECTION\");\n        print(\"ABOUT TO MAKE POLL\");\n        poll.addCandidate(candidate);\n    }\n\n    function getElection() public returns (Election){\n        print(\"ABOUT TO RETRIEVE ELECTION\");\n        return Election(allElections[0]);\n    }\n}",
  "sourcePath": "/Users/fullstackacademy/Desktop/election/contracts/ElectionFactory.sol",
  "compiler": {
    "name": "solc",
    "version": "0.4.24+commit.e67f0147.Emscripten.clang"
  },
  "schemaVersion": "2.0.0",
  "updatedAt": "2018-06-14T21:54:48.534Z"
}