{
  "contractName": "Election",
  "abi": [
    {
      "constant": true,
      "inputs": [],
      "name": "creator",
      "outputs": [
        {
          "name": "",
          "type": "address"
        }
      ],
      "payable": false,
      "stateMutability": "view",
      "type": "function"
    },
    {
      "constant": true,
      "inputs": [],
      "name": "candidatesCount",
      "outputs": [
        {
          "name": "",
          "type": "uint256"
        }
      ],
      "payable": false,
      "stateMutability": "view",
      "type": "function"
    },
    {
      "constant": true,
      "inputs": [
        {
          "name": "",
          "type": "uint256"
        }
      ],
      "name": "candidates",
      "outputs": [
        {
          "name": "id",
          "type": "uint256"
        },
        {
          "name": "name",
          "type": "string"
        },
        {
          "name": "voteCount",
          "type": "uint256"
        }
      ],
      "payable": false,
      "stateMutability": "view",
      "type": "function"
    },
    {
      "constant": true,
      "inputs": [],
      "name": "question",
      "outputs": [
        {
          "name": "",
          "type": "string"
        }
      ],
      "payable": false,
      "stateMutability": "view",
      "type": "function"
    },
    {
      "constant": true,
      "inputs": [
        {
          "name": "",
          "type": "address"
        }
      ],
      "name": "voters",
      "outputs": [
        {
          "name": "",
          "type": "bool"
        }
      ],
      "payable": false,
      "stateMutability": "view",
      "type": "function"
    },
    {
      "inputs": [
        {
          "name": "_creator",
          "type": "address"
        },
        {
          "name": "allCandidates",
          "type": "string"
        },
        {
          "name": "_question",
          "type": "string"
        }
      ],
      "payable": false,
      "stateMutability": "nonpayable",
      "type": "constructor"
    },
    {
      "constant": false,
      "inputs": [
        {
          "name": "_candidateId",
          "type": "uint256"
        }
      ],
      "name": "vote",
      "outputs": [],
      "payable": false,
      "stateMutability": "nonpayable",
      "type": "function"
    }
  ],
  "bytecode": "0x608060405234801561001057600080fd5b5060405161080838038061080883398101806040528101908080519060200190929190805182019291906020018051820192919050505082600360006101000a81548173ffffffffffffffffffffffffffffffffffffffff021916908373ffffffffffffffffffffffffffffffffffffffff160217905550806004908051906020019061009e92919061013c565b506100b7826100bf640100000000026401000000009004565b505050610261565b6002600081548092919060010191905055506060604051908101604052806002548152602001828152602001600081525060016000600254815260200190815260200160002060008201518160000155602082015181600101908051906020019061012b9291906101bc565b506040820151816002015590505050565b828054600181600116156101000203166002900490600052602060002090601f016020900481019282601f1061017d57805160ff19168380011785556101ab565b828001600101855582156101ab579182015b828111156101aa57825182559160200191906001019061018f565b5b5090506101b8919061023c565b5090565b828054600181600116156101000203166002900490600052602060002090601f016020900481019282601f106101fd57805160ff191683800117855561022b565b8280016001018555821561022b579182015b8281111561022a57825182559160200191906001019061020f565b5b509050610238919061023c565b5090565b61025e91905b8082111561025a576000816000905550600101610242565b5090565b90565b610598806102706000396000f300608060405260043610610078576000357c0100000000000000000000000000000000000000000000000000000000900463ffffffff1680630121b93f1461007d57806302d05d3f146100aa5780632d35a8a2146101015780633477ee2e1461012c5780633fad9ae0146101e0578063a3ec138d14610270575b600080fd5b34801561008957600080fd5b506100a8600480360381019080803590602001909291905050506102cb565b005b3480156100b657600080fd5b506100bf6103c0565b604051808273ffffffffffffffffffffffffffffffffffffffff1673ffffffffffffffffffffffffffffffffffffffff16815260200191505060405180910390f35b34801561010d57600080fd5b506101166103e6565b6040518082815260200191505060405180910390f35b34801561013857600080fd5b50610157600480360381019080803590602001909291905050506103ec565b6040518084815260200180602001838152602001828103825284818151815260200191508051906020019080838360005b838110156101a3578082015181840152602081019050610188565b50505050905090810190601f1680156101d05780820380516001836020036101000a031916815260200191505b5094505050505060405180910390f35b3480156101ec57600080fd5b506101f56104ae565b6040518080602001828103825283818151815260200191508051906020019080838360005b8381101561023557808201518184015260208101905061021a565b50505050905090810190601f1680156102625780820380516001836020036101000a031916815260200191505b509250505060405180910390f35b34801561027c57600080fd5b506102b1600480360381019080803573ffffffffffffffffffffffffffffffffffffffff16906020019092919050505061054c565b604051808215151515815260200191505060405180910390f35b6000803373ffffffffffffffffffffffffffffffffffffffff1673ffffffffffffffffffffffffffffffffffffffff16815260200190815260200160002060009054906101000a900460ff1615151561032357600080fd5b60008111801561033557506002548111155b151561034057600080fd5b60016000803373ffffffffffffffffffffffffffffffffffffffff1673ffffffffffffffffffffffffffffffffffffffff16815260200190815260200160002060006101000a81548160ff021916908315150217905550600160008281526020019081526020016000206002016000815480929190600101919050555050565b600360009054906101000a900473ffffffffffffffffffffffffffffffffffffffff1681565b60025481565b6001602052806000526040600020600091509050806000015490806001018054600181600116156101000203166002900480601f01602080910402602001604051908101604052809291908181526020018280546001816001161561010002031660029004801561049e5780601f106104735761010080835404028352916020019161049e565b820191906000526020600020905b81548152906001019060200180831161048157829003601f168201915b5050505050908060020154905083565b60048054600181600116156101000203166002900480601f0160208091040260200160405190810160405280929190818152602001828054600181600116156101000203166002900480156105445780601f1061051957610100808354040283529160200191610544565b820191906000526020600020905b81548152906001019060200180831161052757829003601f168201915b505050505081565b60006020528060005260406000206000915054906101000a900460ff16815600a165627a7a72305820f3e3dc4d06c451bb2e230169112b149d91788eb554aaa4016caa99288904cf880029",
  "source": "pragma solidity ^0.4.2;\n\ncontract Election {\n\n    struct Candidate {\n        uint id;\n        string name;\n        uint voteCount;\n    }\n\n    //mapping to keep track of people who voted\n    mapping(address => bool) public voters;\n\n    //mapping of all id numbers to corresponding candidates\n    mapping(uint => Candidate) public candidates;\n    \n    //keeps track of candidate so we can access them in the mapping\n    uint public candidatesCount;\n\n    //stores the creator of the election poll\n    address public creator;\n\n    //stores the title of the poll\n    string public question;\n\n    function Election(address _creator, string allCandidates, string _question) public {\n        creator = _creator;\n        question = _question;\n        addCandidate(allCandidates);\n        // for(uint i=0; i<allCandidates.length; i++){\n        //     addCandidate(allCandidates[i]);\n        // }\n    }\n\n    function addCandidate(string _name) private {\n        candidatesCount++;\n        candidates[candidatesCount] = Candidate(candidatesCount, _name, 0);\n    }\n\n    function vote(uint _candidateId) public {\n        require(!voters[msg.sender]);\n        require(_candidateId > 0 && _candidateId <= candidatesCount);\n\n        voters[msg.sender] = true;\n\n        candidates[_candidateId].voteCount ++;\n    }\n}",
  "sourcePath": "/Users/fullstackacademy/Desktop/election/contracts/Election.sol",
  "compiler": {
    "name": "solc",
    "version": "0.4.24+commit.e67f0147.Emscripten.clang"
  },
  "schemaVersion": "2.0.0",
  "updatedAt": "2018-06-06T19:13:11.636Z"
}